:0400000057EF00F0C6
:100008001882FACF01F0FBCF02F0E9CF03F0EACF74
:1000180004F0E1CF05F0E2CF06F0D9CF07F0DACF50
:1000280008F0F3CF09F0F4CF0AF0F6CF0BF0F7CFD2
:100038000CF0F8CF0DF0F5CF0EF018C00FF019C086
:1000480010F01AC011F01BC012F09EAA06D09D9A9B
:10005800AECF13F013C0ADFF9D8A12C01BF011C0C4
:100068001AF010C019F00FC018F00EC0F5FF0DC03F
:10007800F8FF0CC0F7FF0BC0F6FF0AC0F4FF09C079
:10008800F3FF08C0DAFF07C0D9FF06C0E2FF05C0CA
:10009800E1FF04C0EAFF03C0E9FF02C0FBFF01C0A3
:1000A800FAFF1892110082EF00F0949C948EAC989D
:1000B800AC9CAC84AC8AAC96AB8EAB9CAB88000E87
:1000C800B86EB886000E156E890E146E8A0EAF6E65
:1000D800D08EF28EF28C9D8A9D98120059EC00F019
:1000E800090E176E1E0E166EE40EE82EFED7162E9B
:1000F800FCD7172EFAD700F000F0F2D71890189214
:06010800000172EF00F09F
:020000040020DA
:08000000FFFFFFFFFFFFFFFF00
:020000040030CA
:0E000000FF081F1EFF8981FF0FC00FE00F4099
:00000001FF
